:100000000C9443000C9460000C9460000C9460000D
:100010000C9460000C9460000C9460000C946000E0
:100020000C9460000C9460000C9460000C946000D0
:100030000C9460000C9460000C94E1060C94600039
:100040000C9460000C9460000C94B9060C94600051
:100050000C9460000C9460000C9460000C946000A0
:100060000C9460000C946000DE05DC05DC05D8050E
:10007000D805D805D805D805D605BD05BD05BD05EB
:10008000BD05B805E00511241FBECFEFD8E0DEBFE7
:10009000CDBF11E0A0E0B1E0E8E4F9E302C00590D3
:1000A0000D92AE31B107D9F726E0AEE1B1E001C063
:1000B0001D92A039B207E1F70E941C180C94A21CF3
:1000C0000C9400006F927F928F929F92AF92BF929A
:1000D000CF92DF92EF92FF920F931F93CF93DF9314
:1000E000CDB7DEB760970FB6F894DEBF0FBECDBFB9
:1000F000009761F16115710549F104303CF507FD88
:100100003CC039014A015B016C0120E10202C001DF
:10011000112482549E4FE92FEE0FEE0B20E1E22EC8
:10012000F12C8E010F5F1F4F9C014E2F5E2F6E2F03
:100130007E2F8E2F9E2FF6010995882339F08D8111
:10014000882321F0909126019923B9F180E090E075
:1001500060960FB6F894DEBF0FBECDBFDF91CF9192
:100160001F910F91FF90EF90DF90CF90BF90AF90D5
:100170009F908F907F906F900895E0912601E111FC
:10018000E5CF0EE111E0A1E1F8011192AA95E9F79E
:1001900090931F0180931E017093210160932001B1
:1001A0005093230140932201309325012093240191
:1001B0008FEF80932601C801CBCFEEE1F1E091E112
:1001C000DF011D929A95E9F7D0921F01C0921E019E
:1001D000B0922101A09220019092230180922201ED
:1001E000709225016092240180932601CE01099628
:1001F0000E94A9066093270170932801809329012A
:1002000090932A01CE010D960E94A90660932B01BE
:1002100070932C0180932D0190932E018EE191E03B
:1002200097CF009721F0FC01108681E0089580E0CF
:1002300008950F931F939FEF9EBD0DB407FEFDCF52
:100240009DB59F779DBD9EB5982F90649EBD0DB4C2
:1002500007FEFDCF9DB59F779DBD072F1127222754
:1002600033270EBD0DB407FEFDCF9DB59F779DBD15
:100270008B01222733270EBD0DB407FEFDCF9DB5A0
:100280009F779DBD052F162F272F33270EBD0DB449
:1002900007FEFDCF9DB59F779DBD4EBD0DB407FEFA
:1002A000FDCF9DB59F779DBD882331F18830C9F47E
:1002B00087E88EBD0DB407FEFDCF8DB58F778DBD60
:1002C0009AE02FEF2EBD0DB407FEFDCF8DB58F77D1
:1002D0008DBD8EB58F3F11F49150A1F71F910F91F5
:1002E00008958FEF8EBD0DB407FEFDCF8DB58F77CE
:1002F0008DBD9AE02FEFE6CF85E98EBD0DB407FEE8
:10030000FDCF8DB58F778DBD9AE02FEFDBCF9FEFBF
:100310009EBD0DB407FEFDCF9DB59F779DBD9EB5DB
:10032000982F90649EBD0DB407FEFDCF9DB59F77BD
:100330009DBD1EBC0DB407FEFDCF9DB59F779DBD35
:100340001EBC0DB407FEFDCF9DB59F779DBD1EBCA5
:100350000DB407FEFDCF9DB59F779DBD1EBC0DB4AE
:1003600007FEFDCF9DB59F779DBD882321F1883085
:10037000B9F487E88EBD0DB407FEFDCF8DB58F773C
:100380008DBD9AE02FEF2EBD0DB407FEFDCF8DB5CC
:100390008F778DBD8EB58F3F11F49150A1F70895E1
:1003A0008FEF8EBD0DB407FEFDCF8DB58F778DBD60
:1003B0009AE02FEFE8CF85E98EBD0DB407FEFDCFA3
:1003C0008DB58F778DBD9AE02FEFDDCFBF92CF92A5
:1003D000DF92EF92FF920F931F93CF93DF933C989E
:1003E0003D98239A259A229A24982A9A83E58CBDCF
:1003F0008DB58E7F8DBD10922F0134994AC01AE0C1
:100400009FEF9EBD0DB407FEFDCF8DB58F778DBDDF
:100410008EB51150B1F72A98C0E0D2E003C0219701
:1004200009F4B5C080E00E9487018130C1F74AEA33
:1004300051E060E070E088E00E94190182FD35C063
:100440008FEF8EBD0DB407FEFDCF8DB58F778DBDBF
:100450008EB58FEF8EBD0DB407FEFDCF8DB58F77B6
:100460008DBD8EB58FEF8EBD0DB407FEFDCF8DB562
:100470008F778DBD0EB400FE0CC08FEF8EBD0DB416
:1004800007FEFDCF8DB58F778DBD8EB58A3A09F405
:1004900078C010E0812FDF91CF911F910F91FF90D5
:1004A000EF90DF90CF90BF90089587E30E9487017F
:1004B00089E20E94870182FF70C080912F01082F7E
:1004C0000370982F9270B92E81FF63C0C12CD12C7C
:1004D000E12C80E4F82EC0E0D0E80DC087E30E9454
:1004E0008701B701A60189E20E94190180FF0AC0B5
:1004F000219709F44CC00111F1CF81E00E948701DE
:1005000080FDF6CFBB2059F18AE30E94870181115B
:1005100050C08FEF8EBD0DB407FEFDCF8DB58F7728
:100520008DBD0EB406FC3FC08FEF8EBD0DB407FE2F
:10053000FDCF8DB58F778DBD8EB58FEF8EBD0DB490
:1005400007FEFDCF8DB58F778DBD8EB58FEF8EBD3C
:100550000DB407FEFDCF8DB58F778DBD8EB540E014
:1005600052E060E070E080E10E9419012A9A811156
:1005700090CF8CB58C7F8CBD8DB581608DBD11E029
:1005800089CF80912F01826080932F0198CF2A9A82
:1005900081CFC12CD12C76019ECF80912F0181601B
:1005A00080932F018CCF80912F01846080932F0145
:1005B000BBCF2A9A6ECF86B18295817091E0892750
:1005C000089586B185FB882780F991E089270895F1
:1005D0002F923F924F925F926F927F928F929F9253
:1005E000AF92BF92CF92DF92EF92FF920F931F9341
:1005F000CF93DF93CDB7DEB760970FB6F894DEBF29
:100600000FBECDBF29833A834B835C836D837E838A
:100610008F83988738012701EF2809F4A3C0212C84
:1006200082E0382E89809A8021E09222940140E075
:1006300050E060E070E0CB0189863A874B875C87A9
:100640006D877E878F87988B29813A814B815C816A
:100650006D817E818F819885A984BA84C12CD12C2B
:10066000E12CF12C00E010E00E94321B7101E8182F
:10067000F9084E145F0408F472012A98E0912F01E2
:10068000E2FF03C009E00E94011BBA01422F532F71
:1006900081E10E941901811167C03FEF3EBD0DB499
:1006A00007FEFDCF8DB58F778DBD8EB58E3FA9F737
:1006B000A4014E0D5F1D80E090E06FEF6EBD0DB4A4
:1006C00007FEFDCF2DB52F772DBD2EB588159905C9
:1006D00048F08417950730F4F301208393012F5FCE
:1006E0003F4F39010196811532E0930731F74FEF03
:1006F0004EBD0DB407FEFDCF8DB58F778DBD8EB588
:100700005FEF5EBD0DB407FEFDCF8DB58F778DBD5C
:100710008EB52A9A6FEF6EBD0DB407FEFDCF8DB575
:100720008F778DBD8EB54E185F08970140E050E081
:1007300060E070E080E090E0A980BA80CB80DC804F
:10074000ED80FE800F8118850E941D1B29833A834E
:100750004B835C836D837E838F8398874114510420
:1007600009F060CF81E002C02A9A80E060960FB65F
:10077000F894DEBF0FBECDBFDF91CF911F910F91D7
:10078000FF90EF90DF90CF90BF90AF909F908F90B1
:100790007F906F905F904F903F902F9008952F9291
:1007A0003F924F925F926F927F928F929F92AF9201
:1007B000BF92CF92DF92EF92FF920F931F93CF934E
:1007C000DF93CDB7DEB76A970FB6F894DEBF0FBEE2
:1007D000CDBF29833A834B835C836D837E838F8374
:1007E00098871C8B0B8B2701DA86C986BE8AAD8A57
:1007F000988E8F8A012B09F436C1E114F10409F4B3
:1008000032C1CE14DF0408F42EC1AB2809F42BC189
:100810002A9866246A9477247A942B883C882E0C34
:100820003F1C29813A8131703A8F298F812C92E0C7
:10083000992E821A930A80912F0182FFF9C0298193
:100840003A814B815C816D817E818F81988509E041
:100850000E94011BF22FE32F942F852F4F2F5E2F25
:10086000692F782F81E10E9419018111F2C06EBCBD
:100870000DB407FEFDCF8DB58F778DBD8EB58E3F44
:10088000B1F7698D7A8D6115710581F0AB0120E0BA
:1008900030E06EBC0DB407FEFDCF8DB58F778DBDFA
:1008A0008EB52F5F3F4F4217530799F78414950475
:1008B00008F4F3C089859A858415950508F4EDC080
:1008C000E98DFA8DFC87EB87EB89FC897EBC0DB442
:1008D00007FEFDCF8DB58F778DBD8EB581932E161A
:1008E0003F06A1F7EB85FC859F0140E050E060E00A
:1008F00070E080E090E0A980BA80CB80DC80ED8061
:10090000FE800F8118850E941D1BEF88F88C8901DD
:100910009A01AB01BC018B899C89ED89FE890995FF
:10092000882309F49BC08418950829853A852419E1
:1009300035093A8729878114910409F48DC021155E
:10094000310571F08414950458F0A9012B853C857C
:10095000240D351D3C872B874415550508F0B4CF71
:1009600051E0851A9108E0E06EBC0DB407FEFDCFA2
:100970008DB58F778DBD8EB531E0831A9108A0F7C4
:100980006EBC0DB407FEFDCF8DB58F778DBD8EB5D6
:100990006EBC0DB407FEFDCF8DB58F778DBD8EB5C6
:1009A00069857A8564157505B8F1498D5A8D9A0166
:1009B00040E050E060E070E0CB012B873C874D8742
:1009C0005E876F87788B898B9A8B20E032E040E0DE
:1009D00050E060E070E080E090E0AB84BC84C12C2B
:1009E000D12CE12CF12C00E010E00E94321BA980F8
:1009F000BA80CB80DC80ED80FE800F8118850E945C
:100A00001D1B29833A834B835C836D837E838F8395
:100A10009887EE2309F405CF2A9A8FEF8EBD0DB487
:100A200007FEFDCF8DB58F778DBD8EB581E01CC0E3
:100A3000C901A0E0B0E049815A816B817C81481BEB
:100A4000590B6A0B7B0B81E10E941901882309F481
:100A50000ECF2A9A80E008C0E0E092CF61E0861ACB
:100A60009108E1E081CF80E06A960FB6F894DEBF8E
:100A70000FBECDBFDF91CF911F910F91FF90EF90EF
:100A8000DF90CF90BF90AF909F908F907F906F90AE
:100A90005F904F903F902F90089588248A949924D6
:100AA0009394698D7A8D861A970AE0E05DCF4F9214
:100AB0005F926F927F928F929F92AF92BF92CF92EE
:100AC000DF92EF92FF920F931F93CF93DF93EC018E
:100AD000892B29F096B1192F107194FF13C010E0E3
:100AE000812FDF91CF911F910F91FF90EF90DF90B9
:100AF000CF90BF90AF909F908F907F906F905F90BE
:100B00004F9008958DE1FE0111928A95E9F72A9898
:100B10008AE00E9487018111D3C09FEF9EBD0DB472
:100B200007FEFDCF8DB58F778DBD8EB58E3FB1F7AA
:100B3000DE0120E630E081E01FEFEFEFE80F1EBDA1
:100B40000DB407FEFDCF9DB59F779DBD9EB54E2F81
:100B500050E04F30510538F08231E1F18F5F28507D
:100B600031091196EACFFA01EC5CFF4F0C94511A4F
:100B7000492F4295407F4F87F1CF492F50E060E0E9
:100B800070E0022E04C0440F551F661F771F0A94A1
:100B9000D2F7CB84DC84ED84FE844C295D296E2958
:100BA0007F294B875C876D877E87D8CF9A87D6CF82
:100BB00011969C931197D2CF9C93D0CF9883CECF90
:100BC000492F42954F705F85452B4F87492F4F70B6
:100BD000488BC4CF89E00E948701E82F811152C061
:100BE0009FEF9EBD0DB407FEFDCF8DB58F778DBDF8
:100BF0008EB58E3FB1F7F1E010E0A0E0B0E0C12C7F
:100C0000E12CFF24FA94DD24D394FEBC0DB407FE3E
:100C1000FDCF8DB58F778DBD9EB5EE2309F46CC0E9
:100C2000EE3009F483C0113081F1111138C0E73082
:100C300009F448C0C8F1E93009F45AC008F44EC0BC
:100C4000EA3069F5991F9927991FC92AAD0160E01B
:100C500070E08E2D90E08C0D911D029604C0440F23
:100C6000551F661F771F8A95D2F79A01AB01298B12
:100C70003A8B4B8B5C8B1D8A1E8A1F8A188EFF5FF6
:100C8000EF5FC3CF2A9A10E02BCFE730B9F028F0FE
:100C9000EA3018F4BA2FAA27A92BE93099F1F231DA
:100CA00071F72A9A11E01CCFE530A9F0E630B9F7C8
:100CB0009370892F90E0B82FAA27E1CF9F73EACFD6
:100CC0002A9A0ECF9D01292BC901DC01AA0FBB1F57
:100CD000AA0FBB1FD4CF9F70E92ED1CF92959695C6
:100CE000969593709D01292BC901DC011196C7CF00
:100CF0009370C92ECC0CC3CF192F1295169516954B
:100D00001370BDCF11969D0140E050E060E070E0AF
:100D100080E090E003E10E94E61A298B3A8B4B8B2E
:100D20005C8B6D8B7E8B8F8B988FA9CF96FDD98E28
:100D300095FDDA8E94FDDB8E292F2C7030E03595F1
:100D40002795359527952C8F9ACFFC01808191812D
:100D50000895FC0160817181828193810895FC0175
:100D6000718360830895FC017383628351834083A0
:100D700008951F920F920FB60F9211242F933F9355
:100D80004F935F936F937F938F939F93AF93BF9393
:100D9000EF93FF93F8948091C6000E94F217789425
:100DA000FF91EF91BF91AF919F918F917F916F9143
:100DB0005F914F913F912F910F900FBE0F901F9019
:100DC00018951F920F920FB60F9211242F933F93F5
:100DD0004F938F939F93EF93FF93F894E0915D0669
:100DE000F0E080918B06FE2FEE27E80FF11DEE0F4D
:100DF000FF1FE35AFD4F2081818190E026952695C3
:100E000028B92BB123702BB94BB19C01220F331F92
:100E1000220F331F242B2BB995B19C7F95B995B127
:100E20008295869586958370892B85B980918B06EE
:100E30008F5F80938B067894FF91EF919F918F91B4
:100E40004F913F912F910F900FBE0F901F901895CB
:100E500087B18F6387B98AB18C6F8AB987B1836094
:100E600087B9089582E084BD81E085BD86EB87BDAA
:100E7000089587E68093C4001092C500E2ECF0E08C
:100E8000808186608083E1ECF0E0808188618083EE
:100E900008958F929F92AF92BF92CF92DF92EF927E
:100EA000FF920F931F93CF93DF9300D000D0CDB765
:100EB000DEB7009769F1423051056105710540F1D7
:100EC000FC01A081B18118968C9118974A015B01B1
:100ED0009A01A50160E070E08B30D9F180E090E0EC
:100EE00001E00E94E61AA284B384C484D584E68417
:100EF000F784008911890E941D1BED91FC91A2E0ED
:100F0000EA2EF12C8E010F5F1F4F0995811115C03C
:100F100060E070E080E090E00F900F900F900F90F5
:100F2000DF91CF911F910F91FF90EF90DF90CF90C5
:100F3000BF90AF909F908F90089589819A816C01A6
:100F4000E12CF12C01978F3E9F4F10F7B601C7019E
:100F5000E3CF80E090E002E00E94E61AA284B3842E
:100F6000C484D584E684F784008911890E941D1BFE
:100F7000ED91FC91B4E0EB2EF12C8E010F5F1F4F31
:100F80000995882329F2C980DA80EB80FC80C1149E
:100F9000D104E104F10409F4BBCFD701C601805F9D
:100FA0009F4FAF4FBF404097A105B10578F6B0CF36
:100FB000CF92DF92EF92FF920F931F93CF93DF9325
:100FC000F701C480D580C114D104D1F08C01C0E0F8
:100FD000D0E0C8018C0F9D1F0E94A506892B61F4EB
:100FE000F70180819181A281B3810196A11DB11D7C
:100FF00080839183A283B3832296CC15DD0548F3C9
:1010000081E0DF91CF911F910F91FF90EF90DF90E2
:10101000CF900895BF92CF92DF92EF92FF920F93FD
:101020001F93CF93DF93CDB7DEB72D970FB6F8940C
:10103000DEBF0FBECDBFF701C080D180A281B381DA
:101040009096B383A283DC01EC90B5EEEB1609F425
:10105000DFC1EE2009F4DCC1DC011B96BC90BFE0CF
:10106000BB1609F4E7C1D601FC90FF2009F45DC06E
:10107000E0FAE794E7F8DC011196FC90AE2DAF0D95
:10108000EA2EE0FAE794E7F8DC011296FC90AE2D28
:10109000AF0DEA2EE0FAE794E7F8DC011396FC9036
:1010A000AE2DAF0DEA2EE0FAE794E7F8DC011496D6
:1010B000FC90AE2DAF0DEA2EE0FAE794E7F8DC01E4
:1010C0001596FC90AE2DAF0DEA2EE0FAE794E7F806
:1010D000DC011696FC90AE2DAF0DEA2EE0FAE794F7
:1010E000E7F8DC011796FC90AE2DAF0DEA2EE0FA82
:1010F000E794E7F8DC011896FC90AE2DAF0DEA2ED0
:10110000E0FAE794E7F8DC011996FC90AE2DAF0DFC
:10111000EA2EE0FAE794E7F8DC011A96FC90AE2D8F
:10112000AF0DF480FA1609F43FC1A1E3FA2ED601FF
:101130001D92FA94E9F7D60199960C9399979A968D
:101140001C939A979B962C939B979C963C939C9769
:101150009D964C939D979E965C939E979F966C93BD
:101160009F97D0967C93DC012C91203209F46FC2BA
:10117000D6012C93DC011C963C911C9733FF07C0D1
:101180003C9131543A3118F4205ED6012C93DC01A5
:1011900011962C91203209F45EC2D60111962C933F
:1011A000DC011C963C911C9733FF09C011963C91C1
:1011B00031543A3120F4205ED60111962C93DC0193
:1011C00012962C91203209F44AC2D60112962C9321
:1011D000DC011C963C911C9733FF09C012963C9190
:1011E00031543A3120F4205ED60112962C93DC0162
:1011F00013962C91203209F436C2D60113962C9303
:10120000DC011C963C911C9733FF09C013963C915E
:1012100031543A3120F4205ED60113962C93DC0130
:1012200014962C91203209F422C2D60114962C93E4
:10123000DC011C963C911C9733FF09C014963C912D
:1012400031543A3120F4205ED60114962C93DC01FF
:1012500015962C91203209F40EC2D60115962C93C6
:10126000DC011C963C911C9733FF09C015963C91FC
:1012700031543A3120F4205ED60115962C93DC01CE
:1012800016962C91203209F4FAC1D60116962C93A9
:10129000DC011C963C911C9733FF09C016963C91CB
:1012A00031543A3120F4205ED60116962C93DC019D
:1012B00017962C91203209F4C1C1D60117962C93B0
:1012C000DC011C963C911C9733FF06C017963C919D
:1012D00031543A3108F4A1C128E030E048E0D601A9
:1012E0005C91553009F496C1DC0118965C9150323E
:1012F00009F453C051E0540FD601A20FB31F2EE2E0
:101300002C93DC0118962C91203209F49DC1B60172
:10131000650F711DDB012C93DC011C963C911C9721
:1013200034FF06C018963C9131543A3108F47AC122
:1013300052E0540FDC0119962C91203209F484C13B
:10134000B601650F711DDB012C93DC011C963C91ED
:101350001C9734FF06C019963C9131543A3108F479
:1013600065C153E0540FDC011A962C91203209F428
:101370006BC1B601650F711DDB012C93DC011C965E
:101380003C911C9734FF06C01A963C9131543A3177
:1013900008F450C14C5F242F30E0D601A20FB31FD8
:1013A0001C92DC011B96BC907F018C01F601B0A25F
:1013B0004A960E94A506A0E0B0E0F60181A392A3A0
:1013C000A3A3B4A3C80144960E94A506A0E0B0E080
:1013D000DC0199278827F60141A152A163A174A1DC
:1013E000842B952BA62BB72B81A392A3A3A3B4A3E5
:1013F000C8014C960E94A906D60195966D937D93DF
:101400008D939C93989781E0F701858380E002C0DB
:10141000148281E02D960FB6F894DEBF0FBECDBFCB
:10142000DF91CF911F910F91FF90EF90DF90CF90C0
:10143000BF900895B480BB2031F0DC011D96FC9074
:10144000BF1409F4FFC0B1E3FB2ED6011D92FA943C
:10145000E9F7DC011D96FC901D97F482F60101A7C7
:1014600012A723A734A745A756A767A770AB2C914F
:101470002F7330E0215031096DE0629FA001639F1E
:10148000500D1124E9E0F1E0DE01119601900D927A
:101490006A95E1F74F31510508F0BAC02981FC0186
:1014A000E20FF11D2081F601E40FF51F20839A0160
:1014B0002F5F3F4F2F31310509F4AAC0D601A20F8B
:1014C000B31F6A81FC01E60FF11D60816C932F5FF1
:1014D0003F4F2F31310509F49BC0D601A20FB31F36
:1014E0006B81FC01E60FF11D60816C932F5F3F4F14
:1014F0002F31310509F48CC0D601A20FB31F6C81C6
:10150000FC01E60FF11D60816C932F5F3F4F2F317F
:10151000310509F47DC0D601A20FB31F6D81FC0116
:10152000E60FF11D60816C932F5F3F4F2F31310526
:1015300009F46EC0D601A20FB31F6E81FC01E60F45
:10154000F11D60816C932F5F3F4F2F31310509F4FE
:101550005FC0D601A20FB31F6F81FC01E60FF11D22
:1015600060816C932F5F3F4F2F31310509F450C0DC
:10157000D601A20FB31F6885FC01E60FF11D608143
:101580006C932F5F3F4F2F31310509F441C0D601D5
:10159000A20FB31F6985FC01E60FF11D60816C93FA
:1015A0002F5F3F4F2F31310599F1D601A20FB31FA5
:1015B0006A85FC01E60FF11D60816C932F5F3F4F40
:1015C0002F31310529F1D601A20FB31F6B85FC0124
:1015D000E60FF11D60816C932F5F3F4F2F31310576
:1015E000B9F0D601A20FB31F6C85FC01E60FF11D07
:1015F00060816C93445F5F4F4F31510549F0F601B4
:10160000E40FF51F2D85DC01A20FB11D8C918083A5
:1016100081E000CF55EE5C9367CE205ED601179631
:101620002C935ACE205EDB012C9382CE205EDB0110
:101630002C9397CE205EDB012C93ACCE47E027E0C5
:1016400030E04DCE2E2D14CF252F30E0A6CE40E039
:1016500020E030E044CE41E021E030E040CE42E006
:1016600022E030E03CCE43E023E030E038CE44E0FE
:1016700024E030E034CE45E025E030E030CE46E0F6
:1016800026E030E02CCECF92DF92EF92FF920F93C4
:101690001F93CF93DF93F701C480D580C114D10489
:1016A000E1F08C01C0E0D0E0C8018C0F9D1F0E94CA
:1016B000A906672B682B692B61F4F7018081918162
:1016C000A281B3810196A11DB11D80839183A28364
:1016D000B3832496CC15DD0538F381E0DF91CF91FB
:1016E0001F910F91FF90EF90DF90CF9008952F9270
:1016F0003F924F925F926F927F928F929F92AF92A2
:10170000BF92CF92DF92EF92FF920F931F93CF93EE
:10171000DF93CDB7DEB7CE54D1090FB6F894DEBF54
:101720000FBECDBF009731F02091E1013091E20171
:10173000232BE1F080E090E0C25BDF4F0FB6F8941E
:10174000DEBF0FBECDBFDF91CF911F910F91FF90F4
:10175000EF90DF90CF90BF90AF909F908F907F9051
:101760006F905F904F903F902F9008952C01E1EE85
:10177000F1E082E3DF011D928A95E9F75092E201E0
:101780004092E101F20181849284A384B4849401A3
:10179000A50160E070E080E090E009E00E94E61AB8
:1017A00059016A01962E872E3C01ABE00E94261B50
:1017B0000190F081E02DA5E2EA2EF12C8E010F5F61
:1017C0001F4F0995811107C01092E2011092E101AB
:1017D00080E090E0B1CFCE0101960E94A5061C01E9
:1017E000CE0104960E94A5067C010B810CAF1E81E0
:1017F0001DAFCE0107960E94A5069FAF8EAFCE010A
:1018000009960E94A5068C01CE010C960E94A506A1
:101810009BAF8AAFCE0146960E94A9066EA37FA316
:1018200088A799A7CE014A960E94A9066EAB7FAB06
:1018300088AF99AFCE0182960E94A9062C966CAF14
:101840007DAF8EAF9FAF2C972EA13FA148A559A584
:10185000232B242B252B09F444C1AAADBBAD109733
:1018600009F44BC18D0120E030E00EAB1FAB28AF77
:1018700039AF870120E030E00AAB1BAB2CAB3DABAE
:10188000EEA0FFA008A519A52AA93BA94CA95DA90E
:10189000E21AF30A040B150B9DAD892F90E0A0E02E
:1018A000B0E024968CAF9DAFAEAFBFAF24979C0144
:1018B000AD016EA97FA988AD99AD0E940B1AE61AF9
:1018C000F70A080B190BC10101972EAD3FAD220F8E
:1018D000331F22953295307F3227207F3227820FA7
:1018E000931FB1010E941B1AA8019701261B370BF9
:1018F00041095109CA01B9014CAD042F10E020E0A3
:1019000030E0A90198010E942F1A2EA73FA748ABEB
:1019100059AB253F8FE038074105510508F454CFF6
:10192000253F3F4F4105510508F4F1C08BE0F2011E
:1019300080878CE2E3EEF1E0DF011D928A95E9F702
:10194000710100E010E02896ECAEFDAE0EAF1FAFC7
:101950002897C801B7012EA13FA148A559A50E940B
:10196000BB1A2093E3013093E4014093E5015093C7
:10197000E6016093E7017093E8018093E901909399
:10198000EA01C801B7012AA93BA94CA95DA90E9497
:10199000BB1AE92CF82C83010E941D1B922E832E6A
:1019A000742E652E6AAB2D967FAF2D972E968FAF36
:1019B0002E972F969FAF2F972093EB013093EC013A
:1019C0004093ED015093EE016093EF017093F001AD
:1019D0008093F1019093F2012EA53FA548A959A942
:1019E0002E5F3F4F4F4F5F4FD20118968C9186303C
:1019F00009F492C064E070E080E090E00E940B1A6D
:101A00006093F3017093F4018093F5019093F601D4
:101A10003092F8012092F701BCADB29DC001B39D98
:101A2000900D11249093FA018093F901F2018085C1
:101A3000863009F476C028966CAD7DAD8EAD9FAD35
:101A4000289724962CAD3DAD4EAD5FAD24970E94F6
:101A5000BB1ACEA8DFA8E8ACF9AC56016701E12CAF
:101A6000F12C8701AEA2BFA2C8A6D9A6EAA6FBA602
:101A70000CA71DA7E12CF12C00E010E00E94621AD7
:101A8000A92CB82CC72CD62CEAA82D96FFAC2D97E4
:101A90002E960FAD2E972F961FAD2F970E941D1BD0
:101AA0002093FB013093FC014093FD015093FE0114
:101AB0006093FF01709300028093010290930202F1
:101AC0002C96ECACFDAC0EAD1FAD2C97E0920B024A
:101AD000F0920C0200930D0210930E0281EE91E041
:101AE0002BCE0115110509F46FCEC801A0E0B0E0BE
:101AF0008EA39FA3A8A7B9A7B0CE8EA99FA9A8AD72
:101B0000B9AD892B8A2B8B2B09F0B3CE5DCE86E045
:101B1000D20118968C930DCF62E070E080E090E0E7
:101B20006DCFAAACBBAC950140E050E028966CADFF
:101B30007DAD8EAD9FAD28970E94BB1AADACB12C88
:101B4000C12CD12CE12CF12C00E010E00E94621A93
:101B5000A92CB82CC72CD62CEAA82D96FFAC2D9713
:101B60002E960FAD2E972F961FAD2F970E941D1BFF
:101B7000522E632E742EB52FA62FF72FE82F192F74
:101B8000209303023093040240930502509306020F
:101B900060930702709308028093090290930A02EF
:101BA0002EAD3FADA12CB12CA50160E070E080E02E
:101BB00090E005E00E94E61AA52CB62CC72CDB2E7F
:101BC000EA2EFF2E0E2F0E941D1B2093FB01309347
:101BD000FC014093FD015093FE016093FF0170935F
:101BE0000002809301029093020278CF009719F0CF
:101BF000FC011182108208952F923F924F925F92C2
:101C00006F927F928F929F92AF92BF92CF92DF920C
:101C1000EF92FF920F931F93CF93DF93CDB7DEB771
:101C2000C454D1090FB6F894DEBF0FBECDBF2396C2
:101C30009FAF8EAF23977CAF6BAF5CAB4BAB892B69
:101C400099F16115710581F1DB018C91882361F1B6
:101C5000452B51F18F3209F434C381E3EBA9FCA980
:101C600011928A95E9F780E1ABA9BCA990968C9373
:101C7000FE01B196F8A7EFA3ABADBCAD8C91882364
:101C800009F491C0EBA9FCA980A184FF0DC080914B
:101C9000300190913101892B09F40AC380916901C7
:101CA00090916A01892BD9F080E0CC5BDF4F0FB6B1
:101CB000F894DEBF0FBECDBFDF91CF911F910F9182
:101CC000FF90EF90DF90CF90BF90AF909F908F905C
:101CD0007F906F905F904F903F902F90089509E60E
:101CE00011E01AAB09ABD80181E3129601900D9275
:101CF0008A95E1F72396EEADFFAD2397A9A9BAA97E
:101D0000ED93FC93ABA9BCA99196FC909197929608
:101D1000EC9092979396DC9093979496CC90E9A947
:101D2000FAA9F3AAE4AAD5AAC6AA10AE17AA6FE226
:101D300070E08BAD9CAD0E94891C009709F417C21E
:101D4000282FFBAD2F1B8C010F5F1F4F25961FAF58
:101D50000EAF2597FDAAEEAADFAAC8AE23964EAC19
:101D60005FAC2397612C712C422F50E05AAF49AFE2
:101D7000F201208C318C62147304B8F0E9A9FAA93D
:101D800083A194A1A5A1B6A183AB94ABA5ABB6AB3F
:101D900010AE17AAA9A9BAA91D921C92ABADBCADF1
:101DA0008C9181116FCF81E080CFAFA1B8A5E6E023
:101DB0001D92EA95E9F7ABA9BCA9E1E31D92EA956A
:101DC000E9F7ABA8BCA8BAA2A9A2CDA8DEA8EFA843
:101DD000F8ACCD28CE28CF2879F4D201ED91FC9132
:101DE000119780858B3009F4B7C1F201228C338CB6
:101DF00082A193A1281A390A80E00DA91EA92FA952
:101E000038AD023011052105310508F40AC141142D
:101E1000510409F4C1C00250110921093109219668
:101E20000CAF1DAF2EAF3FAF219755C0D2015896D2
:101E30006D917C91599780E090E021962CAD3DAD5D
:101E40004EAD5FAD21970E94BB1AF201A28CB38CFC
:101E5000C48CD58CE68CF78C00A111A10E941D1BAF
:101E60005301C12CD12CE12CF12C870169A6BAA613
:101E7000CBA6DCA6EDA6FEA60FA718ABC12CD12CD5
:101E8000E12CF12C00E010E00E941D1B1CA21BA203
:101E90000190F081E02D0280F381E02D8E010F5D35
:101EA0001F4F4801AAE0AA2EA8E0BA2E6101C61869
:101EB000D708B0E2EB2EF12C0052110909958823C6
:101EC00009F468CF8BA19CA1680E791E621473047B
:101ED00008F087C08EA1882309F4A8CFEDA8FEA83A
:101EE0000FA918ADA9A9BAA9D396ED92FD920D93A9
:101EF0001C93D697D8967C926E92D797EBA9FCA9A3
:101F000001900020E9F73197ABA9BCA9EA1BFB0BB4
:101F1000A9ACBAACEA15FB0509F441C0A9A9BAA954
:101F20004D905C9025CF1CA21BA2930140E050E095
:101F300060E070E0CB01E0910000F09101000280D0
:101F4000F381E02DDE0191964D011AE0A12E18E0FB
:101F5000B12E6101C618D70800E2E02EF12C8E01E7
:101F60000F5F1F4F69A63AA74BA75CA76DA77EA777
:101F70008FA798AB40E050E060E070E080E090E038
:101F80000995882309F406CF8BA19CA1680E791EC0
:101F90006214730430F58EA1882329F29FCFA50126
:101FA000BD018BAD9CAD0E94941C892B09F0B6CF6E
:101FB000A9A9BAA91D921C92EBADFCADEA0DFB1DBF
:101FC0008081882309F4EFCEEBA9FCA980A184FFCE
:101FD0006BCE2596AEACBFAC2597BCAEABAED501F3
:101FE0004DCE4DA95EA96FA978ADC2010E944907E7
:101FF0006DAB7EAB8FAB98AF672B682B692B09F06D
:10200000A7C08EA1E9A9FAA98111C3C083A194A197
:10201000A5A1B6A183AB94ABA5ABB6AB10AE17AA86
:10202000B9CE4114510409F4BBC0012B022B032B80
:1020300009F48AC039C01CA21BA2930140E050E001
:1020400060E070E0CB01D201ED91FC910280F38160
:10205000E02D8E010F5D1F4F4801AAE0AA2EA8E0D7
:10206000BA2E6101C618D708B0E2EB2EF12C00524F
:10207000110969A63AA74BA75CA76DA77EA78FA7F2
:1020800098AB40E050E060E070E080E090E00995BF
:10209000882309F47FCE8BA19CA1680E791E62145F
:1020A000730408F09ECF8EA1882329F2A12CB12CB5
:1020B0006501A394ADAABEAACFAAD8AE0FCF930153
:1020C00040E050E060E070E090E0D2019296AC9089
:1020D00092979396BC9093979496CC90949795965C
:1020E000DC9095979696EC9096979796FC9097979C
:1020F00098960C91989799961C9199970E941D1B00
:102100001CA21BA2ED91FC910280F381E02D8E01B7
:102110000F5D1F4F4801AAE0AA2EA8E0BA2E610168
:10212000C618D708B0E2EB2EF12C00521109099520
:10213000882309F42FCE8BA19CA1680E791E62140E
:10214000730408F04ECF8EA1882309F4B8CFC6CE11
:102150008EA1612C712C51CE9A96AD90BD90CD90F0
:10216000DC909D97ADAABEAACFAAD8AE45CEEBAD66
:10217000FCAD01900020E9F731978BAD9CADE81BD9
:10218000F90B2E2F8E0F911D25969FAF8EAF2597A1
:10219000E1CD13AA14AA15AA16AA70AE67AAAECEEC
:1021A000A9019801232B242B252B09F47EC0811132
:1021B0003CC01CA21BA2930140E050E060E070E034
:1021C000CB01E0910000F09101000280F381E02D4D
:1021D000DE0191964D01AAE0AA2EA8E0BA2E610177
:1021E000C618D708B0E2EB2EF12C8E010F5F1F4FFF
:1021F00069A63AA74BA75CA76DA77EA78FA798AB48
:1022000040E050E060E070E080E090E009958823D5
:1022100009F4C0CD8BA19CA1680E791E62147304D1
:1022200008F0DFCE8EA1882321F2C12CD12C7601BB
:10223000C394CDAADEAAEFAAF8AE50CE930140E037
:1022400050E060E070E080E090E0A2B0B3B0C4B0D5
:10225000D5B0E6B0F7B008B119B10E941D1B1CA2A1
:102260001BA2E0910000F09101000280F381E02DBB
:102270008E010F5D1F4F4801AAE0AA2EA8E0BA2EDA
:102280006101C618D708B0E2EB2EF12C00521109FB
:102290000995882309F47ECD8BA19CA1680E791E37
:1022A0006214730408F09DCE8EA1882339F216CEF5
:1022B000E0E3F1E0FAABE9ABEBA9FCA9A9A9BAA963
:1022C00013CD1196BCAFABAFC8CC009769F06115C8
:1022D000710551F0FB0120A124FD06C02091A2014F
:1022E0003091A301232B19F080E090E0089521E3C1
:1022F000FB01A4EAB1E001900D922A95E1F79093D9
:10230000A3018093A2011092D5011092D6011092E0
:10231000D7011092D8011092D9011092DA011092CF
:10232000DB011092DC01FB0181A192A1A3A1B4A168
:102330008093DD019093DE01A093DF01B093E00173
:1023400082EA91E00895009719F0FC011182108251
:1023500008952F923F924F925F926F927F928F9249
:102360009F92AF92BF92CF92DF92EF92FF920F9324
:102370001F93CF93DF93CDB7DEB765970FB6F89471
:10238000DEBF0FBECDBF9B8B8A8B7C876B87598B43
:10239000488B009709F4C6C1672B09F4C3C16A01D1
:1023A000452B09F4BFC1DC01D396FC91D397D49699
:1023B000EC91D497D596BC91BC8BAA89BB89D69653
:1023C0009C90D697D796BC91BD8BAA89BB89D8968D
:1023D0008C90D897D996BC91B987AA89BB89DA968F
:1023E000BC91BF87AA89BB8997964D905D906D90EF
:1023F0007C909A97960140E050E060E070E080E0C9
:1024000090E0AF2EBE2ECC88D92CED88F82C098513
:102410001F850E941D1B63015201E12CF12C8701D5
:102420004982BA82CB82DC82ED82FE820F831887DA
:10243000E12CF12C00E010E00E943B1B31F128F16F
:102440008F2F9E2F8C016201C01AD10AD98AC88AA7
:10245000CD28F1F480E090E065960FB6F894DEBFE9
:102460000FBECDBFDF91CF911F910F91FF90EF90E5
:10247000DF90CF90BF90AF909F908F907F906F90A4
:102480005F904F903F902F900895CF01092F182F04
:102490002D903C90D10158960D90BC91A02DBE87F7
:1024A000AD87AA89BB89DB964D905D906D907C903D
:1024B000DE974114510461047104E1F593964D9047
:1024C0005D906D907C909697411451046104710465
:1024D00009F412C12F2F3E2F4C89592D6D89782D6B
:1024E00089859F85A0E00E94441B21F19F01832ED6
:1024F000922EA42EB52E2D853E856901E12CF12C5E
:1025000014C08C189D08AE08BF08B301A201C10118
:102510000E9449072B013C01672B682B692B09F4AA
:1025200001C1AA89BB892D903C908C149D04AE04F6
:10253000BF0438F78D859E850197FC01E023F123C8
:10254000FA87E987A888B988BA82A9820EC0DB9683
:102550004D925D926D927C92DE97E981FA81EF2B2C
:1025600009F4DDC0FD01208031802114310409F41B
:10257000ABC0F2E04F1651046104710408F4A4C02A
:10258000D10158966D917C91599780E090E0A3011C
:10259000920122503109410951090E94BB1AF101EF
:1025A000A28CB38CC48CD58CE68CF78C00A111A1C5
:1025B0000E941D1B59016A017B018C018D859E853E
:1025C00029853A85821B930B89809A808815990505
:1025D00008F44C01E985FA859F0140E050E060E095
:1025E00070E080E090E00E941D1BD101ED91FC9114
:1025F0000190F081E02D74010B851C8509958823DD
:1026000009F473C0AB84BC84A80CB91CBC86AB862F
:10261000C980DA80C818D908DA82C982940140E0FA
:1026200050E060E070E080E090E0AA89BB89D3963A
:10263000AC90D397D496BC90D497D596CC90D597A0
:10264000D696DC90D697D796EC90D797D896FC90F4
:10265000D897D9960C91D997DA961C91DA970E945F
:102660001D1BD3962C93D397D4963C93D497D59691
:102670004C93D597D6965C93D697D7966C93D7976D
:10268000D8967C93D897D9968C93D997DA969C93C1
:10269000DA97E985FA858E0E9F1EAD84BE848A1472
:1026A0009B0408F454CFB301A2018D919C910E9428
:1026B00049072B013C01672B682B692B71F01A86A7
:1026C0001986AA89BB8943CFA12CB12CC12CD12C4E
:1026D000E12CF12C00E010E071CFAA89BB89DB96D8
:1026E0001D921D921D921C92DE9788899989E9811D
:1026F000FA818E1B9F0BB0CE01E010E02F2F3E2FF2
:102700004C89592D6D89782D89859F85A0E00E947F
:10271000441B59F088279927801B910B9DCE8889EF
:1027200099899ACE8FEF9FEF97CE00E010E0F2CF1D
:102730008F929F92AF92BF92CF92DF92EF92FF92D1
:10274000CF93DF93FC01892B81F16115710569F14C
:10275000413009F440C0A8F1423039F5C7A0D0A4F7
:10276000E1A4F2A4EB0188819981AA81BB818C0D3F
:102770009D1DAE1DBF1DC816D906EA06FB06A8F0B2
:102780004C015D0183AB94AAA5AAB6AA17AA10AE04
:1027900011AE12AE13AE14AE15AE16AEFB018083B1
:1027A0009183A283B38381E001C080E0DF91CF9168
:1027B000FF90EF90DF90CF90BF90AF909F908F9061
:1027C0000895EB0188819981AA81BB81C7A0D0A41B
:1027D000E1A4F2A4D0CFC3A8D4A8E5A8F6A8EB0141
:1027E00088819981AA81BB818C0D9D1DAE1DBF1D65
:1027F000C7A0D0A4E1A4F2A4BECFCF93DF930097EB
:1028000099F06115710581F0FB0120A124FF0CC036
:102810002091300130913101232B59F02091690131
:1028200030916A01232B01F180E090E0DF91CF919C
:102830000895C0E3D1E0DE01129621E3FB0101908F
:102840000D922A95E1F799838883FB0181A192A1DA
:10285000A3A1B4A18BAB9CABADABBEAB18AE1FAA12
:10286000CE01DF91CF910895C9E6D1E0E4CF009782
:1028700019F0FC011182108208952F923F924F921D
:102880005F926F927F928F929F92AF92BF92CF9200
:10289000DF92EF92FF920F931F93CF93DF93CDB709
:1028A000DEB7EA970FB6F894DEBF0FBECDBFFC01CE
:1028B000892BC9F061157105B1F040805180D201BA
:1028C00058962D903C90599767A870AC6214730489
:1028D00020F183A194A1A5A1B6A183AB94ABA5AB34
:1028E000B6AB10AE17AA80E0EA960FB6F894DEBF3A
:1028F0000FBECDBFDF91CF911F910F91FF90EF9051
:10290000DF90CF90BF90AF909F908F907F906F900F
:102910005F904F903F902F900895A3A8B4A8C5A8AA
:10292000D6A8A9AABAAACBAADCAA8E010F5D1F4F0E
:1029300018A70FA386E0D8011D928A95E9F781E3D5
:10294000DB011D928A95E9F77AA369A3AB28AC282D
:10295000AD2809F415C1FAAFE9AF80E04114510484
:1029600009F44AC1A9A8BAA8CBA8DCA8A114B1044B
:10297000C104D10409F4BDC09601850102301105DE
:102980002105310508F4F1C002501109210931096E
:102990000DAB1EAB2FAB38AF53C0D20158966D9123
:1029A0007C91599780E090E02DA93EA94FA958ADA0
:1029B0000E94BB1AF201A28CB38CC48CD58CE68C1D
:1029C000F78C00A111A10E941D1B5301C12CD12C19
:1029D000E12CF12C870169A6BAA6CBA6DCA6EDA650
:1029E000FEA60FA718ABC12CD12CE12CF12C00E0D6
:1029F00010E00E941D1B1CA21BA20190F081E02D83
:102A00000280F381E02D8E010F5D1F4F4801AAE087
:102A1000AA2EA8E0BA2E6101C618D708B0E2EB2EA4
:102A2000F12C005211090995882309F45CCF8BA180
:102A30009CA1680E791E6214730408F0B7C08EA1C1
:102A4000882309F4AACFC9A8DAA8EBA8FCA8A9ADE5
:102A5000BAADD396CD92DD92ED92FC92D697D896F0
:102A60007C926E92D79740CF930140E050E060E0B7
:102A700070E090E0D2019296AC9092979396BC90C1
:102A800093979496CC9094979596DC90959796967C
:102A9000EC9096979796FC90979798960C919897AC
:102AA00099961C9199970E941D1B1CA21BA2ED9147
:102AB000FC910280F381E02D8E010F5D1F4F4801D4
:102AC000AAE0AA2EA8E0BA2E6101C618D708B0E283
:102AD000EB2EF12C005211090995882309F403CF3C
:102AE0008BA19CA1680E791E6214730408F05EC06D
:102AF0008EA1882309F4B8CFA6CF1CA21BA29301F4
:102B000040E050E060E070E0CB01D201ED91FC913B
:102B10000280F381E02D8E010F5D1F4F4801AAE076
:102B2000AA2EA8E0BA2E6101C618D708B0E2EB2E93
:102B3000F12C0052110969A63AA74BA75CA76DA713
:102B40007EA78FA798AB40E050E060E070E080E0A7
:102B500090E00995882309F4C6CE8BA19CA1680E4C
:102B6000791E6214730410F58EA1882331F2A12C12
:102B7000B12C6501A394A9AABAAACBAADCAA63CFF7
:102B8000D2018D919C91DC0118968C91D2018B30F1
:102B900009F4B3C05A962D913C915B9792968D9112
:102BA0009C9193971901281A390AD5CE49A95AA997
:102BB0006BA97CA9C2010E94490769AB7AAB8BABB8
:102BC0009CAB672B682B692B99F48EA181113BCFAD
:102BD000A9ADBAAD93964D915D916D917C9196970B
:102BE000FD0143AB54AB65AB76AB10AE17AA7CCE00
:102BF0008EA1612C712CB2CE29A93AA94BA95CA94E
:102C0000232B242B252B09F475C03AC01CA21BA230
:102C1000930140E050E060E070E0CB01E091000003
:102C2000F09101000280F381E02DDE0191964D01CB
:102C3000AAE0AA2EA8E0BA2E6101C618D708B0E211
:102C4000EB2EF12C8E010F5F1F4F69A63AA74BA701
:102C50005CA76DA77EA78FA798AB40E050E060E02F
:102C600070E080E090E00995882309F43CCE8BA1C8
:102C70009CA1680E791E6214730408F097CF8EA190
:102C8000882321F2E0CE930140E050E060E070E064
:102C900080E090E0A2B0B3B0C4B0D5B0E6B0F7B079
:102CA00008B119B10E941D1B1CA21BA2E0910000DB
:102CB000F09101000280F381E02D8E010F5D1F4F26
:102CC0004801AAE0AA2EA8E0BA2E6101C618D708CA
:102CD000B0E2EB2EF12C005211090995882309F47A
:102CE00002CE8BA19CA1680E791E6214730408F0B9
:102CF0005DCF8EA1882339F2A6CE9A96AD90BD9075
:102D0000CD90DC909D97A9AABAAACBAADCAA23CE23
:102D1000FC01892B61F083A194A1A5A1B6A183AB8D
:102D200094ABA5ABB6AB10AE17AA81E0089580E0D6
:102D30000895FC01892B41F1A081B18118968C91F5
:102D40008B30A9F082899389A489B589B695A79516
:102D5000979587959C01AD01225031094109510990
:102D6000608D718D80E090E00E94BB1A0895828989
:102D70009389A489B589B695A79597958795B695B2
:102D8000A79597958795E6CF20E030E040E050E0AA
:102D900060E070E080E090E008952F923F924F92C3
:102DA0005F926F927F928F929F92AF92BF92CF92DB
:102DB000DF92EF92FF920F931F93CF93DF93CDB7E4
:102DC000DEB7E0970FB6F894DEBF0FBECDBF009719
:102DD00009F48EC098AB8FA719A21AA21BA21CA23D
:102DE00080E290E09EA38DA3EFA5F8A9F285FFA352
:102DF000EFA5F8A9F385F8A7EFA5F8A9F485F9A739
:102E0000EFA5F8A9F585FAA7EFA5F8A9F685FBA720
:102E1000EFA5F8A9F785FCA7EFA5F8A9F089FDA70C
:102E2000EFA5F8A9F189FEA7EFA5F8A94288538874
:102E300064887588411451046104710409F046C026
:102E400093C01201EFA5F8A9A081B1811296ED916E
:102E5000FC91139718968C91863009F444C093E442
:102E6000A92E9BE0B92ECE0181964C01610180E232
:102E7000E82EF12C8E010F5F1F4F2FA138A549A519
:102E80005AA56BA57CA58DA59EA50995882381F1E2
:102E9000910140E050E060E070E080E090E0AFA0A1
:102EA000B8A4C9A4DAA4EBA4FCA40DA51EA50E9495
:102EB0001D1B2FA338A749A75AA76BA77CA78DA7CF
:102EC0009EA7421853086108710899F1FEEF4F164A
:102ED000FFEF5F066104710408F4B3CF3EEF232EC9
:102EE00033243A94AFCF28EDA22E27E0B22EBBCFE9
:102EF00020E030E040E050E060E070E080E090E012
:102F0000E0960FB6F894DEBF0FBECDBFDF91CF9134
:102F10001F910F91FF90EF90DF90CF90BF90AF90F7
:102F20009F908F907F906F905F904F903F902F90E9
:102F3000089589A19AA1ABA1BCA19C01AD0160E05B
:102F400070E0CB01EFA5F8A9208C318C59016A0102
:102F50007B018C01910140E050E060E070E080E096
:102F600090E00E94621ACCCF20E030E040E050E0D8
:102F700060E070E080E090E0E7CFE4E1F2E0158A05
:102F8000148A178A168A118E108E089520912C02A9
:102F900030912D022115310519F482E090E0089559
:102FA0004091280250912902FA01EC5EFD4F6081A8
:102FB000FC016083CA010196909329028093280244
:102FC0002150310930932D0220932C02449719F09F
:102FD00080E090E00895109229021092280280E08B
:102FE00090E0089540912C0250912D0244315105FA
:102FF00001F120912A0230912B02F901EC5EFD4F84
:103000008083C901019690932B0280932A024F5F1F
:103010005F4F50932D0240932C02449719F080E0AB
:1030200090E0089510922B0210922A0280E090E026
:10303000089581E090E008958F929F92AF92BF92A1
:10304000CF92DF92EF92FF920F931F93CF93DF9374
:10305000CDB7DEB7CA56D1090FB6F894DEBF0FBEA2
:10306000CDBF0E9428070E9432070E9439070E94A4
:10307000E60100E020E030E040E050E06FEC73E07B
:1030800088EE92E00E946200009709F4B8C10E94A5
:10309000770B6C01AE014E5C5F4F66E171E00E9400
:1030A000FC0DBE016E5C7F4FC6010E94FD137C01CA
:1030B00037E6A32E36E0B32E8E010F5F1F4F8BE84D
:1030C000A81686E0B80621F43CC189A184FF78C126
:1030D000B801C7010E943D148111F7CF03E011E050
:1030E00080911302882309F49DC0813009F4B7C090
:1030F00080918B06813808F0E8C0809166068823AD
:1031000079F3F0905D06F126E091000184E0E80299
:10311000F0011124E959F94F40E060E070E080814E
:1031200091810E949813E091000184E0E802F0018F
:103130001124E959F94F48E050E0BE016D597F4F25
:10314000808191810E94A911E0910101F091020119
:103150009081A4968FADA497981399C0AB968CAD2F
:103160009DADAEADBFADAB978093000090930100D5
:10317000A0930200B0930300AB968CAD9DADAEADB5
:10318000BFADAB97B695A7959795879580935E064B
:1031900090935F06A0936006B0936106109262065A
:1031A00010926306109264061092650640E050E0AB
:1031B000BA01481759076A077B0709F4A3C06F2DA6
:1031C00070E0762F6627770F635A7D4FE0910001FC
:1031D00084E0E802F0011124E959F94F40E052E09F
:1031E000808191810E94A91180916206909163066D
:1031F000A0916406B09165069F5FAF4FBF4F80936B
:10320000620690936306A0936406B093650680916E
:1032100066068111F0925D06109266068091130297
:10322000811163CF8CE592E00E94C617892B91F43F
:1032300080915C02843009F490C048F0853009F434
:1032400088C0863039F4A9981092130251CF823089
:1032500009F47CC080911302813009F049CFCE017E
:103260008D599F4F0E94C617892B09F041CF80913D
:103270005C02823009F475C0843009F039CFA4961D
:103280008FADA497809300011093660631CFAB9663
:103290008CAD9DADAEADBFADAB978093000090936C
:1032A0000100A0930200B0930300E091000184E0CC
:1032B000E802F0011124E959F94F41E060E070E0C3
:1032C000808191810E9498132ECFF0905D06F126A7
:1032D00080916606811118CF409162065091630675
:1032E000609164067091650680915E0690915F061C
:1032F000A0916006B0916106481759076A077B07DD
:1033000009F05DCF10926206109263061092640677
:1033100010926506A99880E090E0C659DF4F0FB67D
:10332000F894DEBF0FBECDBFDF91CF911F910F91FB
:10333000FF90EF90DF90CF90BF90AF909F908F90D5
:103340000895B801C7010E943D14C8CE109313021E
:1033500086CFA99A10921302CBCEA998109313028C
:103360007ECFA496EFADA49784E0E89FF0011124EE
:10337000E959F94F0280F381E02DDF010D90002023
:10338000E9F71197AE1BBF0B3A2F8091C00085FF64
:10339000FCCF0093C6008091C00085FFFCCFA093B6
:1033A000C600332309F4A4CE90E021918091C0009F
:1033B00085FFFCCF2093C6009F5F3913F6CF98CED0
:1033C000F80101900020E9F731974F01801A910A26
:1033D000C40199270E945F1BF50193838283A40196
:1033E0004F5F5F4FB8010E94801CF50160817181C1
:1033F000C6010E946511F4E0AF0EB11C60CE0FEF64
:1034000020E030E040E050E06FEC73E088EE92E0C6
:103410000E9462003CCEDB018F939F930E94571A5B
:10342000BF91AF91A29F800D911DA39F900DB29F60
:10343000900D11240895AA1BBB1B51E107C0AA1FC0
:10344000BB1FA617B70710F0A61BB70B881F991F45
:103450005A95A9F780959095BC01CD010895A1E2F8
:103460001A2EAA1BBB1BFD010DC0AA1FBB1FEE1FFE
:10347000FF1FA217B307E407F50720F0A21BB30B49
:10348000E40BF50B661F771F881F991F1A9469F7C5
:1034900060957095809590959B01AC01BD01CF0121
:1034A0000895EE0FFF1F0590F491E02D09940E94FE
:1034B000501BA59F900DB49F900DA49F800D911D52
:1034C00011240895DF93CF931F930F939A9DF02DAE
:1034D000219FF00D8B9DF00D8A9DE02DF10D039F36
:1034E000F00D029FE00DF11D4E9DE00DF11D5E9D62
:1034F000F00D4F9DF00D7F936F93BF92AF925F934E
:103500004F93D5010E94501B8B01AC01D7010E9443
:10351000501BEB01E80FF91FD6010E94B21A2F9140
:103520003F91D6010E94501BC60FD71FE81FF91FFD
:10353000AF91BF910E94B21A2F913F910E94501BF0
:10354000C60FD71FE81FF91FD6010E94501BE60FB8
:10355000F71F9801BE01CF0111240F911F91CF9148
:10356000DF9108950E94501B460F571FC81FD91F97
:1035700008F431960895E894DF93CF93FC01DB01C2
:103580000E94501B7F936F93E9019A01AC01BF9396
:10359000AF933F932F93DF010E94501B26F46C1BC7
:1035A0007D0B820B930B9E01EB01FC010E94B21A72
:1035B000AF91BF912F913F910E94B21ABE01CF01EE
:1035C000F9012F913F91CF91DF9108950F9308302A
:1035D00090F0982F872F762F652F542F432F322F5F
:1035E00022270850F4CF220F331F441F551F661F98
:1035F000771F881F991F0A95B2F70F91089597FBBF
:1036000010F8169400080F93083098F00850232FF4
:10361000342F452F562F672F782F892F902DF4CFD9
:10362000059497958795779567955795479537951D
:1036300027950A95AAF70F9108952A0D3B1D4C1D59
:103640005D1D6E1D7F1D801F911F08950024A7FD25
:1036500000942A0F301D401D501D601D701D801DDF
:10366000901D08952A193B094C095D096E097F09CF
:10367000800B910B08952A153B054C055D056E05E1
:103680007F058007910708950024A7FD00942A175D
:1036900030054005500560057005800590050895CA
:1036A000A29FB001B39FC001A39F700D811D112483
:1036B000911DB29F700D811D1124911D08950F93CE
:1036C0001F93CF93DF938230910510F482E090E056
:1036D000E0918E06F0918F0620E030E0A0E0B0E0AF
:1036E000309719F1408151810281138148175907A0
:1036F000C8F08417950769F4109731F012960C936F
:10370000129713961C9327C000938E0610938F0672
:1037100022C02115310519F04217530718F49A01F8
:10372000BD01EF01DF01F801DBCF21153105F9F013
:10373000281B390B2430310580F48A819B81611567
:10374000710521F0FB019383828304C090938F065F
:1037500080938E06FE01329644C0FE01E20FF31FF5
:103760008193919322503109398328833AC0209163
:103770008C0630918D06232B41F420910501309168
:10378000060130938D0620938C0620910301309121
:1037900004012115310541F42DB73EB740910701D1
:1037A00050910801241B350BE0918C06F0918D0699
:1037B000E217F307A0F42E1B3F0B2817390778F008
:1037C000AC014E5F5F4F2417350748F04E0F5F1F67
:1037D00050938D0640938C068193919302C0E0E054
:1037E000F0E0CF01DF91CF911F910F910895CF931A
:1037F000DF93009709F481C0FC0132971382128293
:10380000A0918E06B0918F06109781F420813181AE
:10381000820F931F20918C0630918D06281739074F
:1038200051F5F0938D06E0938C0667C0ED0120E022
:1038300030E0CE17DF0740F44A815B819E014115DD
:103840005105F1F0EA01F5CFD383C2834081518164
:10385000840F951FC817D90759F488819981840F5F
:10386000951F0296918380838A819B8193838283B3
:103870002115310529F4F0938F06E0938E063DC0A3
:10388000E901FB83EA8349915991C40FD51FEC17D5
:10389000FD0761F480819181840F951F0296E901F3
:1038A00099838883828193819B838A83E0E0F0E01F
:1038B00012968D919C911397009719F0FD01DC01F0
:1038C000F7CF8D919C9111979D012E5F3F4F820FF5
:1038D000931F20918C0630918D062817390769F4C3
:1038E000309729F410928F0610928E0602C0138230
:1038F0001282B0938D06A0938C06DF91CF9108952C
:10390000FB01DC0102C001900D9241505040D8F7FC
:103910000895FC018191861721F08823D9F7992712
:1039200008953197CF010895FB01DC0141505040CB
:1039300030F08D910190801919F40020B9F7881B9F
:08394000990B0895F894FFCFE4
:10394800FF180100009006200001030507090E106A
:0E395800121416181C1E2F006461746100000A
:00000001FF
