:1000000014C02CC02BC02AC029C028C027C003C1DF
:1000100025C024C023C022C021C023C11FC01EC0D0
:100020001DC01CC01BC01AC019C011241FBECFEDBB
:10003000CDBF10E0A0E6B0E0EAE5F5E002C0059033
:100040000D92A239B107D9F720E0A2E9B0E001C0D2
:100050001D92A03CB207E1F7DCD17DC2D1CF929ACC
:1000600082E08A95F1F700C092980895CF93C82F47
:10007000662311F0909A01C090989198BD9ABC9A0D
:10008000BB9ABA9AC298C398C498C598C7FDC29A39
:10009000C6FDC39AC5FDC49AC4FDC59AE0DFC298E7
:1000A000C398C498C598C3FDC29AC2FDC39AC1FD46
:1000B000C49AC0FDC59AD3DFC59AC49AC39AC29A9E
:1000C000CF9108959098919ABD98BC98BB98BA9892
:1000D000929A82E08A95F1F700C0B59B02C080E158
:1000E00001C080E0B4998062B3998064B29980685D
:1000F000929892E09A95F1F700C0929A92E09A95C0
:10010000F1F700C0B5998160B4998260B3998460B9
:10011000B299886092980895D5DF87FDFDCF8AE077
:100120008A95F1F700C0CECFCF93C82FF5DF60E0FE
:100130008C2FCF919BCFCF93C82FEEDF61E08C2F18
:10014000CF9194CF611102C0805801C08054ECCF90
:10015000E3DF90E0089581E0E7CF82E0E5CFCF9341
:10016000C82FDADFCA3041F4803410F080E001C0DB
:1001700080E48058CF91D8CF61E08C2FCF9176CF9B
:10018000CF93DF93EC018991882311F0E8DFFBCF57
:10019000DF91CF910895CF93DF93FC018491EF011C
:1001A0002196882319F0DBDFFE01F8CFDF91CF9194
:1001B0000895CF93C82F889A899A8A9ABD9ABC9A33
:1001C000BB9ABA9A8FEF9CE70197F1F700C0000045
:1001D000C49AC59A44DF8FE097E20197F1F700C017
:1001E00000003DDF9AEA9A95F1F700C038DF8AEA0D
:1001F0008A95F1F700C0C59832DF9AEA9A95F1F72F
:1002000000C088E291DF88E08FDFA5DF86E08CDF29
:100210008C2FCF9189CF1F920F920FB60F9211247E
:100220002F933F934F935F936F937F938F939F93FE
:10023000AF93BF93EF93FF93F8948CB1C2D07894AF
:10024000FF91EF91BF91AF919F918F917F916F91AE
:100250005F914F913F912F910F900FBE0F901F9084
:1002600018951F920F920FB60F9211248F93F89446
:1002700081E08093920078948F910F900FBE0F9041
:100280001F90189581B3837E81BB82B38C6182BB42
:10029000089582E080BF85E083BF83EC86BF81E064
:1002A00089BF089583E389B912B888E18AB986E0E5
:1002B00083B9579A08958091BE00811104C04BDF25
:1002C00083E690E05DCF90916200915019F0909399
:1002D0006200089581508093620008952091BE00CD
:1002E000211104C038DF83E690E04ACF809162009C
:1002F0008F5F482F082E000C550B30E04217530734
:1003000019F0809362000895109262000895809120
:1003100062008F3F21F41FDF83E690E031CF9091A0
:1003200060009F3F41F45D9BFECF94E09CB95D9BD4
:10033000FECF8CB908958091BF00882339F05D9B72
:10034000FECF85E08CB91092BF0008955D9BFECF73
:1003500085E08CB981E08093BF000895E3E9F0E087
:10036000158A148A178A168A118E108E0895409164
:10037000AB005091AC0041155105E9F02091A70068
:100380003091A800F901ED56FF4F6081FC016083B8
:10039000C90101969093A8008093A700415051098C
:1003A0005093AC004093AB00449741F41092A800E6
:1003B0001092A70003C082E090E0089580E090E0F2
:1003C00008954091AB005091AC0044315105D9F0F3
:1003D0002091A9003091AA00F901ED56FF4F8083CA
:1003E000C90101969093AA008093A9004F5F5F4FC7
:1003F0005093AC004093AB00449741F41092AA0094
:100400001092A90003C081E090E0089580E090E0A0
:100410000895CF93DF9300D0CDB7DD271A829EDFFA
:1004200031DF40DF8CE0C5DE96DE60E080E08ADE12
:100430000FEF82E0D82ECE01029699DF892BA9F426
:100440008A81882319F0813031F00BC01092BE00F0
:10045000009362000AC08EEB90E089DF892BD9F708
:1004600004C079DE85E790E08BDE929B0AC023DF33
:100470002FEF30E782E0215030408040E1F700C0AC
:100480000000929B0AC017DF9FEF20E732E09150F7
:1004900020403040E1F700C00000929B0AC00BDF13
:1004A0008FEF90E722E0815090402040E1F700C0BC
:1004B000000080919200882309F4BDCF80916200F2
:1004C00090916100981701F15D9BFECFDCB85D9BB8
:1004D000FECF8CB9CE0101964ADF892BD9F7CE0128
:1004E000019645DF892BD9F7C98010E01C1561F012
:1004F000812F90E09C0123553F4F7901C70137DFE1
:10050000892BE1F71F5FF2CF26DE809162008F3FDB
:10051000C1F08DEA90E034DE61E080E013DE80918E
:1005200062008F5C1CDE61E08DE00CDE8091620079
:100530008F5C15DE8FE213DE8091BE00805D0FDEE2
:1005400003C088E890E01CDE109292008091620067
:0A0550008093610070CFF894FFCF94
:10055A00FFFFFF4E6F20736F6E677320746F2070FA
:10056A006C61792100496E636F72726563742063EE
:10057A006F6D6D616E6421004E6F20736F6E67211F
:02058A0000006F
:00000001FF
